{
  "contractName": "TodoList",
  "abi": [
    {
      "anonymous": false,
      "inputs": [
        {
          "indexed": false,
          "internalType": "uint256",
          "name": "id",
          "type": "uint256"
        },
        {
          "indexed": false,
          "internalType": "bool",
          "name": "completed",
          "type": "bool"
        }
      ],
      "name": "TaskCompleted",
      "type": "event"
    },
    {
      "anonymous": false,
      "inputs": [
        {
          "indexed": false,
          "internalType": "uint256",
          "name": "id",
          "type": "uint256"
        },
        {
          "indexed": false,
          "internalType": "string",
          "name": "content",
          "type": "string"
        },
        {
          "indexed": false,
          "internalType": "bool",
          "name": "completed",
          "type": "bool"
        },
        {
          "indexed": false,
          "internalType": "enum TodoList.Priority",
          "name": "priority",
          "type": "uint8"
        },
        {
          "indexed": false,
          "internalType": "string",
          "name": "category",
          "type": "string"
        },
        {
          "indexed": false,
          "internalType": "uint256",
          "name": "dueDate",
          "type": "uint256"
        }
      ],
      "name": "TaskCreated",
      "type": "event"
    },
    {
      "anonymous": false,
      "inputs": [
        {
          "indexed": false,
          "internalType": "uint256",
          "name": "id",
          "type": "uint256"
        }
      ],
      "name": "TaskDeleted",
      "type": "event"
    },
    {
      "anonymous": false,
      "inputs": [
        {
          "indexed": false,
          "internalType": "uint256",
          "name": "id",
          "type": "uint256"
        },
        {
          "indexed": false,
          "internalType": "string",
          "name": "update",
          "type": "string"
        }
      ],
      "name": "TaskHistoryUpdated",
      "type": "event"
    },
    {
      "anonymous": false,
      "inputs": [
        {
          "indexed": false,
          "internalType": "uint256",
          "name": "id",
          "type": "uint256"
        },
        {
          "indexed": false,
          "internalType": "string",
          "name": "content",
          "type": "string"
        },
        {
          "indexed": false,
          "internalType": "enum TodoList.Priority",
          "name": "priority",
          "type": "uint8"
        },
        {
          "indexed": false,
          "internalType": "string",
          "name": "category",
          "type": "string"
        },
        {
          "indexed": false,
          "internalType": "uint256",
          "name": "dueDate",
          "type": "uint256"
        }
      ],
      "name": "TaskUpdated",
      "type": "event"
    },
    {
      "inputs": [],
      "name": "taskCount",
      "outputs": [
        {
          "internalType": "uint256",
          "name": "",
          "type": "uint256"
        }
      ],
      "stateMutability": "view",
      "type": "function",
      "constant": true
    },
    {
      "inputs": [
        {
          "internalType": "uint256",
          "name": "",
          "type": "uint256"
        }
      ],
      "name": "tasks",
      "outputs": [
        {
          "internalType": "uint256",
          "name": "id",
          "type": "uint256"
        },
        {
          "internalType": "string",
          "name": "content",
          "type": "string"
        },
        {
          "internalType": "bool",
          "name": "completed",
          "type": "bool"
        },
        {
          "internalType": "enum TodoList.Priority",
          "name": "priority",
          "type": "uint8"
        },
        {
          "internalType": "string",
          "name": "category",
          "type": "string"
        },
        {
          "internalType": "uint256",
          "name": "dueDate",
          "type": "uint256"
        }
      ],
      "stateMutability": "view",
      "type": "function",
      "constant": true
    },
    {
      "inputs": [
        {
          "internalType": "address",
          "name": "",
          "type": "address"
        },
        {
          "internalType": "uint256",
          "name": "",
          "type": "uint256"
        }
      ],
      "name": "userTasks",
      "outputs": [
        {
          "internalType": "uint256",
          "name": "",
          "type": "uint256"
        }
      ],
      "stateMutability": "view",
      "type": "function",
      "constant": true
    },
    {
      "inputs": [
        {
          "internalType": "string",
          "name": "_content",
          "type": "string"
        },
        {
          "internalType": "enum TodoList.Priority",
          "name": "_priority",
          "type": "uint8"
        },
        {
          "internalType": "string",
          "name": "_category",
          "type": "string"
        },
        {
          "internalType": "uint256",
          "name": "_dueDate",
          "type": "uint256"
        }
      ],
      "name": "createTask",
      "outputs": [],
      "stateMutability": "nonpayable",
      "type": "function"
    },
    {
      "inputs": [
        {
          "internalType": "uint256",
          "name": "_id",
          "type": "uint256"
        }
      ],
      "name": "deleteTask",
      "outputs": [],
      "stateMutability": "nonpayable",
      "type": "function"
    },
    {
      "inputs": [
        {
          "internalType": "uint256",
          "name": "_id",
          "type": "uint256"
        },
        {
          "internalType": "string",
          "name": "_content",
          "type": "string"
        },
        {
          "internalType": "enum TodoList.Priority",
          "name": "_priority",
          "type": "uint8"
        },
        {
          "internalType": "string",
          "name": "_category",
          "type": "string"
        },
        {
          "internalType": "uint256",
          "name": "_dueDate",
          "type": "uint256"
        }
      ],
      "name": "updateTask",
      "outputs": [],
      "stateMutability": "nonpayable",
      "type": "function"
    },
    {
      "inputs": [
        {
          "internalType": "uint256",
          "name": "_id",
          "type": "uint256"
        }
      ],
      "name": "toggleCompleted",
      "outputs": [],
      "stateMutability": "nonpayable",
      "type": "function"
    },
    {
      "inputs": [
        {
          "internalType": "address",
          "name": "_user",
          "type": "address"
        }
      ],
      "name": "getUserTasks",
      "outputs": [
        {
          "internalType": "uint256[]",
          "name": "",
          "type": "uint256[]"
        }
      ],
      "stateMutability": "view",
      "type": "function",
      "constant": true
    },
    {
      "inputs": [
        {
          "internalType": "uint256",
          "name": "_id",
          "type": "uint256"
        }
      ],
      "name": "getTaskHistory",
      "outputs": [
        {
          "internalType": "string[]",
          "name": "",
          "type": "string[]"
        }
      ],
      "stateMutability": "view",
      "type": "function",
      "constant": true
    }
  ],
  "bytecode": "0x60806040526000805534801561001457600080fd5b506119c0806100246000396000f3fe608060405234801561001057600080fd5b50600436106100935760003560e01c80638f0d0ccf116100665780638f0d0ccf1461013557806395d5766014610151578063b6cb58a514610181578063cfea5ffe1461019f578063f5c993e1146101bb57610093565b8063455f502414610098578063560f3192146100b457806366873a55146100d05780638d97767214610100575b600080fd5b6100b260048036038101906100ad91906110fc565b6101eb565b005b6100ce60048036038101906100c991906110fc565b610381565b005b6100ea60048036038101906100e5919061102d565b610634565b6040516100f7919061149d565b60405180910390f35b61011a600480360381019061011591906110fc565b610665565b60405161012c969594939291906114e1565b60405180910390f35b61014f600480360381019061014a9190611069565b6107cb565b005b61016b60048036038101906101669190611004565b6109ff565b604051610178919061145b565b60405180910390f35b610189610a96565b604051610196919061149d565b60405180910390f35b6101b960048036038101906101b49190611125565b610a9c565b005b6101d560048036038101906101d091906110fc565b610c8a565b6040516101e29190611439565b60405180910390f35b80600060016000838152602001908152602001600020600001541415610246576040517f08c379a000000000000000000000000000000000000000000000000000000000815260040161023d9061147d565b60405180910390fd5b60006001600084815260200190815260200160002090508060020160009054906101000a900460ff16158160020160006101000a81548160ff0219169083151502179055508060050180600181540180825580915050600190039060005260206000200160006040518060400160405280601981526020017f546f67676c656420436f6d706c6574696f6e2053746174757300000000000000815250909190915090805190602001906102fa929190610dd5565b507fe21fa966ca5cd02748c0752352d18c48165e61cb55b4c29cccf924b5a95fcff1838260020160009054906101000a900460ff1660405161033d9291906114b8565b60405180910390a17f9f7688a1c9577d528acd54afbe88068cc51c8d1f3b49a7a2ab0203ebe0c775468360405161037491906115df565b60405180910390a1505050565b806000600160008381526020019081526020016000206000015414156103dc576040517f08c379a00000000000000000000000000000000000000000000000000000000081526004016103d39061147d565b60405180910390fd5b6000600260003373ffffffffffffffffffffffffffffffffffffffff1673ffffffffffffffffffffffffffffffffffffffff168152602001908152602001600020905060005b81805490508110156105795783828281548110610468577f4e487b7100000000000000000000000000000000000000000000000000000000600052603260045260246000fd5b9060005260206000200154141561056657816001838054905061048b919061170d565b815481106104c2577f4e487b7100000000000000000000000000000000000000000000000000000000600052603260045260246000fd5b9060005260206000200154828281548110610506577f4e487b7100000000000000000000000000000000000000000000000000000000600052603260045260246000fd5b90600052602060002001819055508180548061054b577f4e487b7100000000000000000000000000000000000000000000000000000000600052603160045260246000fd5b60019003818190600052602060002001600090559055610579565b808061057190611822565b915050610422565b50600160008481526020019081526020016000206000808201600090556001820160006105a69190610e5b565b6002820160006101000a81549060ff02191690556002820160016101000a81549060ff02191690556003820160006105de9190610e5b565b60048201600090556005820160006105f69190610e9b565b50507fd078b251d950cc55c44340be1db732337ef4939a76e1367ee271ad2cb19c46af83604051610627919061149d565b60405180910390a1505050565b6002602052816000526040600020818154811061065057600080fd5b90600052602060002001600091509150505481565b600160205280600052604060002060009150905080600001549080600101805461068e906117f0565b80601f01602080910402602001604051908101604052809291908181526020018280546106ba906117f0565b80156107075780601f106106dc57610100808354040283529160200191610707565b820191906000526020600020905b8154815290600101906020018083116106ea57829003601f168201915b5050505050908060020160009054906101000a900460ff16908060020160019054906101000a900460ff1690806003018054610742906117f0565b80601f016020809104026020016040519081016040528092919081815260200182805461076e906117f0565b80156107bb5780601f10610790576101008083540402835291602001916107bb565b820191906000526020600020905b81548152906001019060200180831161079e57829003601f168201915b5050505050908060040154905086565b6000808154809291906107dd90611822565b919050555060606040518060e00160405280600054815260200186815260200160001515815260200185600281111561083f577f4e487b7100000000000000000000000000000000000000000000000000000000600052602160045260246000fd5b815260200184815260200183815260200182815250600160008054815260200190815260200160002060008201518160000155602082015181600101908051906020019061088e929190610dd5565b5060408201518160020160006101000a81548160ff02191690831515021790555060608201518160020160016101000a81548160ff02191690836002811115610900577f4e487b7100000000000000000000000000000000000000000000000000000000600052602160045260246000fd5b02179055506080820151816003019080519060200190610921929190610dd5565b5060a0820151816004015560c0820151816005019080519060200190610948929190610ebc565b50905050600260003373ffffffffffffffffffffffffffffffffffffffff1673ffffffffffffffffffffffffffffffffffffffff16815260200190815260200160002060005490806001815401808255809150506001900390600052602060002001600090919091909150557fbf02bc14aa8c104103a0ebc3c95b3597598a55bdbead782f32fc49cfe71ebbaa6000548660008787876040516109f0969594939291906114e1565b60405180910390a15050505050565b6060600260008373ffffffffffffffffffffffffffffffffffffffff1673ffffffffffffffffffffffffffffffffffffffff168152602001908152602001600020805480602002602001604051908101604052809291908181526020018280548015610a8a57602002820191906000526020600020905b815481526020019060010190808311610a76575b50505050509050919050565b60005481565b84600060016000838152602001908152602001600020600001541415610af7576040517f08c379a0000000000000000000000000000000000000000000000000000000008152600401610aee9061147d565b60405180910390fd5b600060016000888152602001908152602001600020905085816001019080519060200190610b26929190610dd5565b50848160020160016101000a81548160ff02191690836002811115610b74577f4e487b7100000000000000000000000000000000000000000000000000000000600052602160045260246000fd5b021790555083816003019080519060200190610b91929190610dd5565b508281600401819055508060050180600181540180825580915050600190039060005260206000200160006040518060400160405280601481526020017f55706461746564205461736b2044657461696c7300000000000000000000000081525090919091509080519060200190610c0a929190610dd5565b507fecd7e4f0e6ca5696e33847a4a74d88ca6c60709bd0483e9445b7449a4207a15f8787878787604051610c42959493929190611550565b60405180910390a17f9f7688a1c9577d528acd54afbe88068cc51c8d1f3b49a7a2ab0203ebe0c7754687604051610c7991906115b1565b60405180910390a150505050505050565b606081600060016000838152602001908152602001600020600001541415610ce7576040517f08c379a0000000000000000000000000000000000000000000000000000000008152600401610cde9061147d565b60405180910390fd5b60016000848152602001908152602001600020600501805480602002602001604051908101604052809291908181526020016000905b82821015610dc9578382906000526020600020018054610d3c906117f0565b80601f0160208091040260200160405190810160405280929190818152602001828054610d68906117f0565b8015610db55780601f10610d8a57610100808354040283529160200191610db5565b820191906000526020600020905b815481529060010190602001808311610d9857829003601f168201915b505050505081526020019060010190610d1d565b50505050915050919050565b828054610de1906117f0565b90600052602060002090601f016020900481019282610e035760008555610e4a565b82601f10610e1c57805160ff1916838001178555610e4a565b82800160010185558215610e4a579182015b82811115610e49578251825591602001919060010190610e2e565b5b509050610e579190610f1c565b5090565b508054610e67906117f0565b6000825580601f10610e795750610e98565b601f016020900490600052602060002090810190610e979190610f1c565b5b50565b5080546000825590600052602060002090810190610eb99190610f39565b50565b828054828255906000526020600020908101928215610f0b579160200282015b82811115610f0a578251829080519060200190610efa929190610dd5565b5091602001919060010190610edc565b5b509050610f189190610f39565b5090565b5b80821115610f35576000816000905550600101610f1d565b5090565b5b80821115610f595760008181610f509190610e5b565b50600101610f3a565b5090565b6000610f70610f6b8461163e565b61160d565b905082815260208101848484011115610f8857600080fd5b610f938482856117ae565b509392505050565b600081359050610faa8161194c565b92915050565b600081359050610fbf81611963565b92915050565b600082601f830112610fd657600080fd5b8135610fe6848260208601610f5d565b91505092915050565b600081359050610ffe81611973565b92915050565b60006020828403121561101657600080fd5b600061102484828501610f9b565b91505092915050565b6000806040838503121561104057600080fd5b600061104e85828601610f9b565b925050602061105f85828601610fef565b9150509250929050565b6000806000806080858703121561107f57600080fd5b600085013567ffffffffffffffff81111561109957600080fd5b6110a587828801610fc5565b94505060206110b687828801610fb0565b935050604085013567ffffffffffffffff8111156110d357600080fd5b6110df87828801610fc5565b92505060606110f087828801610fef565b91505092959194509250565b60006020828403121561110e57600080fd5b600061111c84828501610fef565b91505092915050565b600080600080600060a0868803121561113d57600080fd5b600061114b88828901610fef565b955050602086013567ffffffffffffffff81111561116857600080fd5b61117488828901610fc5565b945050604061118588828901610fb0565b935050606086013567ffffffffffffffff8111156111a257600080fd5b6111ae88828901610fc5565b92505060806111bf88828901610fef565b9150509295509295909350565b60006111d883836112e9565b905092915050565b60006111ec838361141b565b60208301905092915050565b60006112038261168e565b61120d81856116c9565b93508360208202850161121f8561166e565b8060005b8581101561125b578484038952815161123c85826111cc565b9450611247836116af565b925060208a01995050600181019050611223565b50829750879550505050505092915050565b600061127882611699565b61128281856116da565b935061128d8361167e565b8060005b838110156112be5781516112a588826111e0565b97506112b0836116bc565b925050600181019050611291565b5085935050505092915050565b6112d481611753565b82525050565b6112e38161179c565b82525050565b60006112f4826116a4565b6112fe81856116eb565b935061130e8185602086016117bd565b61131781611927565b840191505092915050565b600061132d826116a4565b61133781856116fc565b93506113478185602086016117bd565b61135081611927565b840191505092915050565b60006113686013836116fc565b91507f5461736b20646f6573206e6f74206578697374000000000000000000000000006000830152602082019050919050565b60006113a86014836116fc565b91507f55706461746564205461736b2044657461696c730000000000000000000000006000830152602082019050919050565b60006113e86019836116fc565b91507f546f67676c656420436f6d706c6574696f6e20537461747573000000000000006000830152602082019050919050565b61142481611792565b82525050565b61143381611792565b82525050565b6000602082019050818103600083015261145381846111f8565b905092915050565b60006020820190508181036000830152611475818461126d565b905092915050565b600060208201905081810360008301526114968161135b565b9050919050565b60006020820190506114b2600083018461142a565b92915050565b60006040820190506114cd600083018561142a565b6114da60208301846112cb565b9392505050565b600060c0820190506114f6600083018961142a565b81810360208301526115088188611322565b905061151760408301876112cb565b61152460608301866112da565b81810360808301526115368185611322565b905061154560a083018461142a565b979650505050505050565b600060a082019050611565600083018861142a565b81810360208301526115778187611322565b905061158660408301866112da565b81810360608301526115988185611322565b90506115a7608083018461142a565b9695505050505050565b60006040820190506115c6600083018461142a565b81810360208301526115d78161139b565b905092915050565b60006040820190506115f4600083018461142a565b8181036020830152611605816113db565b905092915050565b6000604051905081810181811067ffffffffffffffff82111715611634576116336118f8565b5b8060405250919050565b600067ffffffffffffffff821115611659576116586118f8565b5b601f19601f8301169050602081019050919050565b6000819050602082019050919050565b6000819050602082019050919050565b600081519050919050565b600081519050919050565b600081519050919050565b6000602082019050919050565b6000602082019050919050565b600082825260208201905092915050565b600082825260208201905092915050565b600082825260208201905092915050565b600082825260208201905092915050565b600061171882611792565b915061172383611792565b9250828210156117365761173561186b565b5b828203905092915050565b600061174c82611772565b9050919050565b60008115159050919050565b600081905061176d82611938565b919050565b600073ffffffffffffffffffffffffffffffffffffffff82169050919050565b6000819050919050565b60006117a78261175f565b9050919050565b82818337600083830152505050565b60005b838110156117db5780820151818401526020810190506117c0565b838111156117ea576000848401525b50505050565b6000600282049050600182168061180857607f821691505b6020821081141561181c5761181b6118c9565b5b50919050565b600061182d82611792565b91507fffffffffffffffffffffffffffffffffffffffffffffffffffffffffffffffff8214156118605761185f61186b565b5b600182019050919050565b7f4e487b7100000000000000000000000000000000000000000000000000000000600052601160045260246000fd5b7f4e487b7100000000000000000000000000000000000000000000000000000000600052602160045260246000fd5b7f4e487b7100000000000000000000000000000000000000000000000000000000600052602260045260246000fd5b7f4e487b7100000000000000000000000000000000000000000000000000000000600052604160045260246000fd5b6000601f19601f8301169050919050565b600381106119495761194861189a565b5b50565b61195581611741565b811461196057600080fd5b50565b6003811061197057600080fd5b50565b61197c81611792565b811461198757600080fd5b5056fea2646970667358221220879835aad633785bf6417c12d2ecfa6395e94cf42baad8ad9f34f254e73c6ccf64736f6c63430008000033",
  "immutableReferences": {},
  "source": "// SPDX-License-Identifier: MIT\r\npragma solidity ^0.8.0;\r\n\r\ncontract TodoList {\r\n    uint public taskCount = 0;\r\n\r\n    enum Priority { Low, Medium, High }\r\n    struct Task {\r\n        uint id;\r\n        string content;\r\n        bool completed;\r\n        Priority priority;\r\n        string category;\r\n        uint dueDate;\r\n        string[] history;\r\n    }\r\n\r\n    mapping(uint => Task) public tasks;\r\n    mapping(address => uint[]) public userTasks;\r\n\r\n    event TaskCreated(uint id, string content, bool completed, Priority priority, string category, uint dueDate);\r\n    event TaskDeleted(uint id);\r\n    event TaskUpdated(uint id, string content, Priority priority, string category, uint dueDate);\r\n    event TaskCompleted(uint id, bool completed);\r\n    event TaskHistoryUpdated(uint id, string update);\r\n\r\n    modifier taskExists(uint _id) {\r\n        require(tasks[_id].id != 0, \"Task does not exist\");\r\n        _;\r\n    }\r\n\r\n    function createTask(string memory _content, Priority _priority, string memory _category, uint _dueDate) public {\r\n        taskCount++;\r\n        string[] memory emptyHistory;\r\n        tasks[taskCount] = Task(taskCount, _content, false, _priority, _category, _dueDate, emptyHistory);\r\n        userTasks[msg.sender].push(taskCount);\r\n        emit TaskCreated(taskCount, _content, false, _priority, _category, _dueDate);\r\n    }\r\n\r\n    function deleteTask(uint _id) public taskExists(_id) {\r\n        // Remove the task from the user's task list\r\n        uint[] storage taskList = userTasks[msg.sender];\r\n        for (uint i = 0; i < taskList.length; i++) {\r\n            if (taskList[i] == _id) {\r\n                taskList[i] = taskList[taskList.length - 1];\r\n                taskList.pop();\r\n                break;\r\n            }\r\n        }\r\n        delete tasks[_id];\r\n        emit TaskDeleted(_id);\r\n    }\r\n\r\n    function updateTask(uint _id, string memory _content, Priority _priority, string memory _category, uint _dueDate) public taskExists(_id) {\r\n        Task storage task = tasks[_id];\r\n        task.content = _content;\r\n        task.priority = _priority;\r\n        task.category = _category;\r\n        task.dueDate = _dueDate;\r\n\r\n        task.history.push(\"Updated Task Details\");\r\n        emit TaskUpdated(_id, _content, _priority, _category, _dueDate);\r\n        emit TaskHistoryUpdated(_id, \"Updated Task Details\");\r\n    }\r\n\r\n    function toggleCompleted(uint _id) public taskExists(_id) {\r\n        Task storage task = tasks[_id];\r\n        task.completed = !task.completed;\r\n        task.history.push(\"Toggled Completion Status\");\r\n        emit TaskCompleted(_id, task.completed);\r\n        emit TaskHistoryUpdated(_id, \"Toggled Completion Status\");\r\n    }\r\n\r\n    function getUserTasks(address _user) public view returns (uint[] memory) {\r\n        return userTasks[_user];\r\n    }\r\n\r\n    function getTaskHistory(uint _id) public view taskExists(_id) returns (string[] memory) {\r\n        return tasks[_id].history;\r\n    }\r\n}\r\n",
  "sourcePath": "C:\\Users\\hayfo\\OneDrive\\Desktop\\dApp ToDo List\\decentralized_to_do_list\\contracts\\ToDoList.sol",
  "compiler": {
    "name": "solc",
    "version": "0.8.0+commit.c7dfd78e.Emscripten.clang"
  },
  "schemaVersion": "3.4.16",
  "updatedAt": "2024-08-01T10:32:03.482Z",
  "networkType": "ethereum",
  "devdoc": {
    "kind": "dev",
    "methods": {},
    "version": 1
  },
  "userdoc": {
    "kind": "user",
    "methods": {},
    "version": 1
  }
}